{
  "contractName": "ClassicChess",
  "abi": [
    {
      "inputs": [
        {
          "name": "_durationPerMove",
          "type": "uint256"
        }
      ],
      "payable": true,
      "stateMutability": "payable",
      "type": "constructor"
    },
    {
      "anonymous": false,
      "inputs": [
        {
          "indexed": false,
          "name": "",
          "type": "address"
        },
        {
          "indexed": false,
          "name": "",
          "type": "uint256"
        },
        {
          "indexed": false,
          "name": "",
          "type": "uint256"
        },
        {
          "indexed": false,
          "name": "",
          "type": "uint256"
        }
      ],
      "name": "OnGameCreated",
      "type": "event"
    },
    {
      "anonymous": false,
      "inputs": [
        {
          "indexed": false,
          "name": "",
          "type": "address"
        },
        {
          "indexed": false,
          "name": "",
          "type": "uint8"
        },
        {
          "indexed": false,
          "name": "",
          "type": "uint8"
        }
      ],
      "name": "OnPlayerJoined",
      "type": "event"
    },
    {
      "anonymous": false,
      "inputs": [
        {
          "indexed": false,
          "name": "",
          "type": "address"
        },
        {
          "indexed": false,
          "name": "",
          "type": "string"
        },
        {
          "indexed": false,
          "name": "",
          "type": "uint256"
        },
        {
          "indexed": false,
          "name": "",
          "type": "uint256"
        }
      ],
      "name": "OnMoveMade",
      "type": "event"
    },
    {
      "anonymous": false,
      "inputs": [
        {
          "indexed": false,
          "name": "",
          "type": "address"
        },
        {
          "indexed": false,
          "name": "",
          "type": "uint256"
        },
        {
          "indexed": false,
          "name": "",
          "type": "uint256"
        }
      ],
      "name": "OnGameEnded",
      "type": "event"
    },
    {
      "constant": true,
      "inputs": [],
      "name": "getPrizePool",
      "outputs": [
        {
          "name": "",
          "type": "uint256"
        }
      ],
      "payable": false,
      "stateMutability": "view",
      "type": "function"
    },
    {
      "constant": true,
      "inputs": [],
      "name": "getFee",
      "outputs": [
        {
          "name": "",
          "type": "uint256"
        }
      ],
      "payable": false,
      "stateMutability": "view",
      "type": "function"
    },
    {
      "constant": true,
      "inputs": [],
      "name": "getDurationPerMove",
      "outputs": [
        {
          "name": "",
          "type": "uint256"
        }
      ],
      "payable": false,
      "stateMutability": "view",
      "type": "function"
    },
    {
      "constant": true,
      "inputs": [],
      "name": "playerToMove",
      "outputs": [
        {
          "name": "",
          "type": "address"
        }
      ],
      "payable": false,
      "stateMutability": "view",
      "type": "function"
    },
    {
      "constant": true,
      "inputs": [
        {
          "name": "halfMove",
          "type": "uint256"
        }
      ],
      "name": "getHalfMove",
      "outputs": [
        {
          "name": "",
          "type": "string"
        }
      ],
      "payable": false,
      "stateMutability": "view",
      "type": "function"
    },
    {
      "constant": false,
      "inputs": [],
      "name": "tryClaimWinOnTime",
      "outputs": [],
      "payable": false,
      "stateMutability": "nonpayable",
      "type": "function"
    },
    {
      "constant": false,
      "inputs": [],
      "name": "joinGame",
      "outputs": [],
      "payable": true,
      "stateMutability": "payable",
      "type": "function"
    },
    {
      "constant": false,
      "inputs": [
        {
          "name": "move",
          "type": "string"
        }
      ],
      "name": "makeMove",
      "outputs": [],
      "payable": false,
      "stateMutability": "nonpayable",
      "type": "function"
    },
    {
      "constant": false,
      "inputs": [],
      "name": "resignGame",
      "outputs": [],
      "payable": false,
      "stateMutability": "nonpayable",
      "type": "function"
    }
  ],
  "bytecode": "0x6060604052604051602080611067833981016040528080519060200190919050508060003411151561003057600080fd5b600660009054906101000a900460ff1615151561004c57600080fd5b600660019054906101000a900460ff1615151561006857600080fd5b603c811015151561007857600080fd5b737f3658c9c847d00ba0c9692c400b54552bbfba536000806101000a81548173ffffffffffffffffffffffffffffffffffffffff021916908373ffffffffffffffffffffffffffffffffffffffff16021790555033600160006101000a81548173ffffffffffffffffffffffffffffffffffffffff021916908373ffffffffffffffffffffffffffffffffffffffff160217905550346004819055508160058190555060016008819055507f2a5d0767bd14749148f09b39261e0892b30082634a52e15c2042ce754210203c600160009054906101000a900473ffffffffffffffffffffffffffffffffffffffff1660045460055442604051808573ffffffffffffffffffffffffffffffffffffffff1673ffffffffffffffffffffffffffffffffffffffff16815260200184815260200183815260200182815260200194505050505060405180910390a15050610e92806101d56000396000f300606060405260043610610099576000357c0100000000000000000000000000000000000000000000000000000000900463ffffffff1680630800cb7e1461009e5780632ee25c51146100b35780634cf446e614610108578063884bf67c146101a45780639198eb7e146101cd5780639e0772c71461022a578063ced72f871461023f578063d4f77b1c14610268578063f8bdc28614610272575b600080fd5b34156100a957600080fd5b6100b161029b565b005b34156100be57600080fd5b6100c6610409565b604051808273ffffffffffffffffffffffffffffffffffffffff1673ffffffffffffffffffffffffffffffffffffffff16815260200191505060405180910390f35b341561011357600080fd5b6101296004808035906020019091905050610433565b6040518080602001828103825283818151815260200191508051906020019080838360005b8381101561016957808201518184015260208101905061014e565b50505050905090810190601f1680156101965780820380516001836020036101000a031916815260200191505b509250505060405180910390f35b34156101af57600080fd5b6101b76104ee565b6040518082815260200191505060405180910390f35b34156101d857600080fd5b610228600480803590602001908201803590602001908080601f016020809104026020016040519081016040528093929190818152602001838380828437820191505050505050919050506104f8565b005b341561023557600080fd5b61023d6106fb565b005b341561024a57600080fd5b61025261085b565b6040518082815260200191505060405180910390f35b610270610874565b005b341561027d57600080fd5b6102856109b3565b6040518082815260200191505060405180910390f35b600660009054906101000a900460ff1615156102b657600080fd5b600660019054906101000a900460ff161515156102d257600080fd5b600660029054906101000a900473ffffffffffffffffffffffffffffffffffffffff1673ffffffffffffffffffffffffffffffffffffffff163373ffffffffffffffffffffffffffffffffffffffff1614151561032e57600080fd5b6001600660016101000a81548160ff0219169083151502179055506103516109bd565b73ffffffffffffffffffffffffffffffffffffffff166108fc6004549081150290604051600060405180830381858888f19350505050151561039257600080fd5b7ff394d6c771f5a944ac2d787dbdf39d7e19fdf46aa0636ed8c9b1504c7a3d5b653360085442604051808473ffffffffffffffffffffffffffffffffffffffff1673ffffffffffffffffffffffffffffffffffffffff168152602001838152602001828152602001935050505060405180910390a1565b6000600660029054906101000a900473ffffffffffffffffffffffffffffffffffffffff16905090565b61043b610dad565b600760008381526020019081526020016000208054600181600116156101000203166002900480601f0160208091040260200160405190810160405280929190818152602001828054600181600116156101000203166002900480156104e25780601f106104b7576101008083540402835291602001916104e2565b820191906000526020600020905b8154815290600101906020018083116104c557829003601f168201915b50505050509050919050565b6000600454905090565b600660009054906101000a900460ff16151561051357600080fd5b600660019054906101000a900460ff1615151561052f57600080fd5b600660029054906101000a900473ffffffffffffffffffffffffffffffffffffffff1673ffffffffffffffffffffffffffffffffffffffff163373ffffffffffffffffffffffffffffffffffffffff1614151561058b57600080fd5b8060076000600854815260200190815260200160002090805190602001906105b4929190610dc1565b506105bd6109bd565b600660026101000a81548173ffffffffffffffffffffffffffffffffffffffff021916908373ffffffffffffffffffffffffffffffffffffffff160217905550426009819055507fb2b81ea335102d240b3880eb5c333ae76fa0f6be5fabc07ae40b8875c2ca3f17338260085442604051808573ffffffffffffffffffffffffffffffffffffffff1673ffffffffffffffffffffffffffffffffffffffff16815260200180602001848152602001838152602001828103825285818151815260200191508051906020019080838360005b838110156106a957808201518184015260208101905061068e565b50505050905090810190601f1680156106d65780820380516001836020036101000a031916815260200191505b509550505050505060405180910390a160086000815480929190600101919050555050565b6107036109bd565b73ffffffffffffffffffffffffffffffffffffffff163373ffffffffffffffffffffffffffffffffffffffff1614151561073c57600080fd5b600660009054906101000a900460ff16151561075757600080fd5b600660019054906101000a900460ff1615151561077357600080fd5b600554600954014211151561078757600080fd5b6001600660016101000a81548160ff0219169083151502179055503373ffffffffffffffffffffffffffffffffffffffff166108fc6004549081150290604051600060405180830381858888f1935050505015156107e457600080fd5b7ff394d6c771f5a944ac2d787dbdf39d7e19fdf46aa0636ed8c9b1504c7a3d5b653360085442604051808473ffffffffffffffffffffffffffffffffffffffff1673ffffffffffffffffffffffffffffffffffffffff168152602001838152602001828152602001935050505060405180910390a1565b6000606460016004540281151561086e57fe5b04905090565b6004543414151561088457600080fd5b600660009054906101000a900460ff161515156108a057600080fd5b600660019054906101000a900460ff161515156108bc57600080fd5b6001600660006101000a81548160ff0219169083151502179055506108df610a90565b34600460008282540192505081905550426009819055506108fe610cf7565b7f49dc0d96a4e0cb5e491b551c9338d5668b2480b66408e3f72013aa83df8cf2c233600260000160149054906101000a900460ff16600360000160149054906101000a900460ff16604051808473ffffffffffffffffffffffffffffffffffffffff1673ffffffffffffffffffffffffffffffffffffffff16815260200183600181111561098857fe5b60ff16815260200182600181111561099c57fe5b60ff168152602001935050505060405180910390a1565b6000600554905090565b6000600260000160009054906101000a900473ffffffffffffffffffffffffffffffffffffffff1673ffffffffffffffffffffffffffffffffffffffff16600660029054906101000a900473ffffffffffffffffffffffffffffffffffffffff1673ffffffffffffffffffffffffffffffffffffffff1614610a6457600260000160009054906101000a900473ffffffffffffffffffffffffffffffffffffffff16610a8b565b600360000160009054906101000a900473ffffffffffffffffffffffffffffffffffffffff165b905090565b60006040805190810160405280600160009054906101000a900473ffffffffffffffffffffffffffffffffffffffff1673ffffffffffffffffffffffffffffffffffffffff168152602001610ae3610d81565b6001811115610aee57fe5b815250600260008201518160000160006101000a81548173ffffffffffffffffffffffffffffffffffffffff021916908373ffffffffffffffffffffffffffffffffffffffff16021790555060208201518160000160146101000a81548160ff02191690836001811115610b5e57fe5b021790555090505060006001811115610b7357fe5b600260000160149054906101000a900460ff166001811115610b9157fe5b1415610c035760019050600160009054906101000a900473ffffffffffffffffffffffffffffffffffffffff16600660026101000a81548173ffffffffffffffffffffffffffffffffffffffff021916908373ffffffffffffffffffffffffffffffffffffffff160217905550610c49565b6000905033600660026101000a81548173ffffffffffffffffffffffffffffffffffffffff021916908373ffffffffffffffffffffffffffffffffffffffff1602179055505b60408051908101604052803373ffffffffffffffffffffffffffffffffffffffff168152602001826001811115610c7c57fe5b815250600360008201518160000160006101000a81548173ffffffffffffffffffffffffffffffffffffffff021916908373ffffffffffffffffffffffffffffffffffffffff16021790555060208201518160000160146101000a81548160ff02191690836001811115610cec57fe5b021790555090505050565b60006064600160045402811515610d0a57fe5b049050806004600082825403925050819055506000809054906101000a900473ffffffffffffffffffffffffffffffffffffffff1673ffffffffffffffffffffffffffffffffffffffff166108fc829081150290604051600060405180830381858888f193505050501515610d7e57600080fd5b50565b6000806002600143034060019004811515610d9857fe5b069050806001811115610da757fe5b91505090565b602060405190810160405280600081525090565b828054600181600116156101000203166002900490600052602060002090601f016020900481019282601f10610e0257805160ff1916838001178555610e30565b82800160010185558215610e30579182015b82811115610e2f578251825591602001919060010190610e14565b5b509050610e3d9190610e41565b5090565b610e6391905b80821115610e5f576000816000905550600101610e47565b5090565b905600a165627a7a72305820275325a1d61343e30a0e3ea95635df71b352a63d13a6d2a3e37fd6815ce590990029",
  "source": "pragma solidity ^0.4.18;\r\n\r\ncontract ClassicChess {\r\n    enum Side { White, Black }\r\n    \r\n    struct Player {\r\n        address addr;\r\n        Side side;\r\n    }\r\n\r\n    event OnGameCreated(address, uint, uint, uint);\r\n    event OnPlayerJoined(address, Side, Side);\r\n    event OnMoveMade(address, string, uint, uint);\r\n    event OnGameEnded(address, uint, uint);\r\n\r\n    modifier bettable(uint _durationPerMove) {\r\n        require(msg.value > 0);\r\n        require(!gameStarted);\r\n        require(!gameEnded);\r\n        require(_durationPerMove >= 1 minutes);\r\n        _;\r\n    }\r\n\r\n    modifier joinable() {\r\n        require(msg.value == prizePool);\r\n        require(!gameStarted);\r\n        require(!gameEnded);\r\n        _;\r\n    }\r\n\r\n    modifier movable() {\r\n        require(gameStarted);\r\n        require(!gameEnded);\r\n        require(msg.sender == toMove);\r\n        _;\r\n    }\r\n\r\n    modifier resignable() {\r\n        require(gameStarted);\r\n        require(!gameEnded);\r\n        require(msg.sender == toMove);\r\n        _;\r\n    }\r\n\r\n    modifier claimable() {\r\n        require(msg.sender == getOtherPlayer());\r\n        require(gameStarted);\r\n        require(!gameEnded);\r\n        require(now > lastMoveTimestamp + durationPerMove);\r\n        _;\r\n    }\r\n\r\n    uint private constant PERCENT_FEE = 1;\r\n\r\n    address private organizer;\r\n    address private host;\r\n    Player private playerOne;\r\n    Player private playerTwo;\r\n    uint private prizePool;\r\n    uint private durationPerMove;\r\n    bool gameStarted;\r\n    bool gameEnded;\r\n    address toMove;\r\n    mapping(uint => string) halfMoves;\r\n    uint currentHalfMove;\r\n    uint lastMoveTimestamp;\r\n    \r\n    function ClassicChess(uint _durationPerMove) payable public bettable(_durationPerMove) {\r\n        organizer = 0x7f3658c9C847d00BA0C9692c400B54552bBFBA53;\r\n        host = msg.sender;\r\n        prizePool = msg.value;\r\n        durationPerMove = _durationPerMove;\r\n        currentHalfMove = 1;\r\n\r\n        OnGameCreated(host, prizePool, durationPerMove, now);\r\n    }\r\n\r\n    function getPrizePool() public view returns (uint) {\r\n        return prizePool;\r\n    }\r\n\r\n    function getFee() public view returns (uint) {\r\n        return (prizePool * PERCENT_FEE) / 100;\r\n    }\r\n\r\n    function getDurationPerMove() public view returns (uint) {\r\n        return durationPerMove;\r\n    }\r\n\r\n    function playerToMove() public view returns (address) {\r\n        return toMove;\r\n    }\r\n\r\n    function getHalfMove(uint halfMove) public view returns (string) {\r\n        return halfMoves[halfMove];\r\n    }\r\n\r\n    function tryClaimWinOnTime() public claimable {\r\n        gameEnded = true;\r\n\r\n        msg.sender.transfer(prizePool);\r\n\r\n        OnGameEnded(msg.sender, currentHalfMove, now);\r\n    }\r\n\r\n    function joinGame() public payable joinable() {\r\n        gameStarted = true;\r\n        \r\n        initializePlayers();\r\n        \r\n        prizePool += msg.value;\r\n        lastMoveTimestamp = now;\r\n\r\n        payOrganizer();\r\n\r\n        OnPlayerJoined(msg.sender, playerOne.side, playerTwo.side);\r\n    }\r\n\r\n    function makeMove(string move) public movable {\r\n        halfMoves[currentHalfMove] = move;\r\n\r\n        toMove = getOtherPlayer();\r\n        lastMoveTimestamp = now;\r\n\r\n        OnMoveMade(msg.sender, move, currentHalfMove, now);\r\n\r\n        currentHalfMove++;\r\n    }\r\n\r\n    function resignGame() public resignable {\r\n        gameEnded = true;\r\n\r\n        getOtherPlayer().transfer(prizePool);\r\n\r\n        OnGameEnded(msg.sender, currentHalfMove, now);\r\n    }\r\n\r\n    function initializePlayers() private {\r\n        playerOne = Player({ addr: host, side: getHostSide() });\r\n        Side playerTwoSide;\r\n\r\n        if (playerOne.side == Side.White) {\r\n            playerTwoSide = Side.Black;\r\n            toMove = host;\r\n        } else {\r\n            playerTwoSide = Side.White;\r\n            toMove = msg.sender;\r\n        }\r\n\r\n        playerTwo = Player({ addr: msg.sender, side: playerTwoSide });\r\n    }\r\n\r\n    function getHostSide() private view returns (Side) {\r\n        uint side = uint(block.blockhash(block.number-1)) % 2;\r\n\r\n        return Side(side);\r\n    }\r\n\r\n    function payOrganizer() private {\r\n        uint fee = (prizePool * PERCENT_FEE) / 100;\r\n        prizePool -= fee;\r\n\r\n        organizer.transfer(fee);\r\n    }\r\n\r\n    function getOtherPlayer() private view returns (address) {\r\n        return (toMove == playerOne.addr) ? playerTwo.addr : playerOne.addr;\r\n    }\r\n}\r\n",
  "sourcePath": "C:\\Self\\Programming\\Projects\\dBoardGames\\truffle\\contracts\\ClassicChess.sol",
  "compiler": {
    "name": "solc",
    "version": "0.4.19+commit.c4cbbb05.Emscripten.clang"
  },
  "schemaVersion": "1.0.1",
  "updatedAt": "2018-02-21T20:45:42.132Z"
}